{
  "contractName": "TasksContract",
  "abi": [
    {
      "inputs": [],
      "stateMutability": "nonpayable",
      "type": "constructor"
    },
    {
      "anonymous": false,
      "inputs": [
        {
          "indexed": false,
          "internalType": "uint256",
          "name": "id",
          "type": "uint256"
        },
        {
          "indexed": false,
          "internalType": "string",
          "name": "title",
          "type": "string"
        },
        {
          "indexed": false,
          "internalType": "string",
          "name": "description",
          "type": "string"
        },
        {
          "indexed": false,
          "internalType": "bool",
          "name": "done",
          "type": "bool"
        },
        {
          "indexed": false,
          "internalType": "uint256",
          "name": "createdAt",
          "type": "uint256"
        }
      ],
      "name": "TaskCreated",
      "type": "event"
    },
    {
      "anonymous": false,
      "inputs": [
        {
          "indexed": false,
          "internalType": "uint256",
          "name": "id",
          "type": "uint256"
        },
        {
          "indexed": false,
          "internalType": "bool",
          "name": "done",
          "type": "bool"
        }
      ],
      "name": "TaskToggledDone",
      "type": "event"
    },
    {
      "inputs": [
        {
          "internalType": "uint256",
          "name": "",
          "type": "uint256"
        }
      ],
      "name": "tasks",
      "outputs": [
        {
          "internalType": "uint256",
          "name": "id",
          "type": "uint256"
        },
        {
          "internalType": "string",
          "name": "title",
          "type": "string"
        },
        {
          "internalType": "string",
          "name": "description",
          "type": "string"
        },
        {
          "internalType": "bool",
          "name": "done",
          "type": "bool"
        },
        {
          "internalType": "uint256",
          "name": "createdAt",
          "type": "uint256"
        }
      ],
      "stateMutability": "view",
      "type": "function"
    },
    {
      "inputs": [],
      "name": "tasksCounter",
      "outputs": [
        {
          "internalType": "uint256",
          "name": "",
          "type": "uint256"
        }
      ],
      "stateMutability": "view",
      "type": "function"
    },
    {
      "inputs": [
        {
          "internalType": "string",
          "name": "_title",
          "type": "string"
        },
        {
          "internalType": "string",
          "name": "_description",
          "type": "string"
        }
      ],
      "name": "createTask",
      "outputs": [],
      "stateMutability": "nonpayable",
      "type": "function"
    },
    {
      "inputs": [
        {
          "internalType": "uint256",
          "name": "_id",
          "type": "uint256"
        }
      ],
      "name": "toggleDone",
      "outputs": [],
      "stateMutability": "nonpayable",
      "type": "function"
    }
  ],
  "bytecode": "0x608060405234801562000010575f80fd5b505f8081905550620000936040518060400160405280600d81526020017f4d79204669727374205461736b000000000000000000000000000000000000008152506040518060400160405280601481526020017f4d79204669727374204465736372697074696f6e0000000000000000000000008152506200009960201b60201c565b62000678565b5f80815480929190620000ac90620001cd565b91905055506040518060a001604052805f5481526020018381526020018281526020015f151581526020014281525060015f805481526020019081526020015f205f820151815f015560208201518160010190816200010c919062000474565b50604082015181600201908162000124919062000474565b506060820151816003015f6101000a81548160ff021916908315150217905550608082015181600401559050507f6549102bed7d1bb5ec529ee14e2ca60ffc1f47f66d4cc6ca713220613cc64c255f5483835f426040516200018b9594939291906200060f565b60405180910390a15050565b7f4e487b71000000000000000000000000000000000000000000000000000000005f52601160045260245ffd5b5f819050919050565b5f620001d982620001c4565b91507fffffffffffffffffffffffffffffffffffffffffffffffffffffffffffffffff82036200020e576200020d62000197565b5b600182019050919050565b5f81519050919050565b7f4e487b71000000000000000000000000000000000000000000000000000000005f52604160045260245ffd5b7f4e487b71000000000000000000000000000000000000000000000000000000005f52602260045260245ffd5b5f60028204905060018216806200029557607f821691505b602082108103620002ab57620002aa62000250565b5b50919050565b5f819050815f5260205f209050919050565b5f6020601f8301049050919050565b5f82821b905092915050565b5f600883026200030f7fffffffffffffffffffffffffffffffffffffffffffffffffffffffffffffffff82620002d2565b6200031b8683620002d2565b95508019841693508086168417925050509392505050565b5f819050919050565b5f6200035c620003566200035084620001c4565b62000333565b620001c4565b9050919050565b5f819050919050565b62000377836200033c565b6200038f620003868262000363565b848454620002de565b825550505050565b5f90565b620003a562000397565b620003b28184846200036c565b505050565b5b81811015620003d957620003cd5f826200039b565b600181019050620003b8565b5050565b601f8211156200042857620003f281620002b1565b620003fd84620002c3565b810160208510156200040d578190505b620004256200041c85620002c3565b830182620003b7565b50505b505050565b5f82821c905092915050565b5f6200044a5f19846008026200042d565b1980831691505092915050565b5f62000464838362000439565b9150826002028217905092915050565b6200047f8262000219565b67ffffffffffffffff8111156200049b576200049a62000223565b5b620004a782546200027d565b620004b4828285620003dd565b5f60209050601f831160018114620004ea575f8415620004d5578287015190505b620004e1858262000457565b86555062000550565b601f198416620004fa86620002b1565b5f5b828110156200052357848901518255600182019150602085019450602081019050620004fc565b868310156200054357848901516200053f601f89168262000439565b8355505b6001600288020188555050505b505050505050565b6200056381620001c4565b82525050565b5f82825260208201905092915050565b5f5b83811015620005985780820151818401526020810190506200057b565b5f8484015250505050565b5f601f19601f8301169050919050565b5f620005bf8262000219565b620005cb818562000569565b9350620005dd81856020860162000579565b620005e881620005a3565b840191505092915050565b5f8115159050919050565b6200060981620005f3565b82525050565b5f60a082019050620006245f83018862000558565b8181036020830152620006388187620005b3565b905081810360408301526200064e8186620005b3565b90506200065f6060830185620005fe565b6200066e608083018462000558565b9695505050505050565b610c2780620006865f395ff3fe608060405234801561000f575f80fd5b506004361061004a575f3560e01c8063292a45851461004e57806385c3e7231461006a5780638d97767214610088578063d81ef739146100bc575b5f80fd5b6100686004803603810190610063919061069e565b6100d8565b005b6100726101ce565b60405161007f919061072c565b60405180910390f35b6100a2600480360381019061009d919061076f565b6101d3565b6040516100b395949392919061082e565b60405180910390f35b6100d660048036038101906100d1919061076f565b61031d565b005b5f808154809291906100e9906108ba565b91905055506040518060a001604052805f5481526020018381526020018281526020015f151581526020014281525060015f805481526020019081526020015f205f820151815f015560208201518160010190816101479190610afb565b50604082015181600201908161015d9190610afb565b506060820151816003015f6101000a81548160ff021916908315150217905550608082015181600401559050507f6549102bed7d1bb5ec529ee14e2ca60ffc1f47f66d4cc6ca713220613cc64c255f5483835f426040516101c295949392919061082e565b60405180910390a15050565b5f5481565b6001602052805f5260405f205f91509050805f0154908060010180546101f89061092e565b80601f01602080910402602001604051908101604052809291908181526020018280546102249061092e565b801561026f5780601f106102465761010080835404028352916020019161026f565b820191905f5260205f20905b81548152906001019060200180831161025257829003601f168201915b5050505050908060020180546102849061092e565b80601f01602080910402602001604051908101604052809291908181526020018280546102b09061092e565b80156102fb5780601f106102d2576101008083540402835291602001916102fb565b820191905f5260205f20905b8154815290600101906020018083116102de57829003601f168201915b505050505090806003015f9054906101000a900460ff16908060040154905085565b5f60015f8381526020019081526020015f206040518060a00160405290815f82015481526020016001820180546103539061092e565b80601f016020809104026020016040519081016040528092919081815260200182805461037f9061092e565b80156103ca5780601f106103a1576101008083540402835291602001916103ca565b820191905f5260205f20905b8154815290600101906020018083116103ad57829003601f168201915b505050505081526020016002820180546103e39061092e565b80601f016020809104026020016040519081016040528092919081815260200182805461040f9061092e565b801561045a5780601f106104315761010080835404028352916020019161045a565b820191905f5260205f20905b81548152906001019060200180831161043d57829003601f168201915b50505050508152602001600382015f9054906101000a900460ff1615151515815260200160048201548152505090508060600151158160600190151590811515815250508060015f8481526020019081526020015f205f820151815f015560208201518160010190816104cd9190610afb565b5060408201518160020190816104e39190610afb565b506060820151816003015f6101000a81548160ff021916908315150217905550608082015181600401559050507f3a359256e016dcfa8426ec503e08484999d6fcfb8c0f6084dc9e63374d838429828260600151604051610545929190610bca565b60405180910390a15050565b5f604051905090565b5f80fd5b5f80fd5b5f80fd5b5f80fd5b5f601f19601f8301169050919050565b7f4e487b71000000000000000000000000000000000000000000000000000000005f52604160045260245ffd5b6105b08261056a565b810181811067ffffffffffffffff821117156105cf576105ce61057a565b5b80604052505050565b5f6105e1610551565b90506105ed82826105a7565b919050565b5f67ffffffffffffffff82111561060c5761060b61057a565b5b6106158261056a565b9050602081019050919050565b828183375f83830152505050565b5f61064261063d846105f2565b6105d8565b90508281526020810184848401111561065e5761065d610566565b5b610669848285610622565b509392505050565b5f82601f83011261068557610684610562565b5b8135610695848260208601610630565b91505092915050565b5f80604083850312156106b4576106b361055a565b5b5f83013567ffffffffffffffff8111156106d1576106d061055e565b5b6106dd85828601610671565b925050602083013567ffffffffffffffff8111156106fe576106fd61055e565b5b61070a85828601610671565b9150509250929050565b5f819050919050565b61072681610714565b82525050565b5f60208201905061073f5f83018461071d565b92915050565b61074e81610714565b8114610758575f80fd5b50565b5f8135905061076981610745565b92915050565b5f602082840312156107845761078361055a565b5b5f6107918482850161075b565b91505092915050565b5f81519050919050565b5f82825260208201905092915050565b5f5b838110156107d15780820151818401526020810190506107b6565b5f8484015250505050565b5f6107e68261079a565b6107f081856107a4565b93506108008185602086016107b4565b6108098161056a565b840191505092915050565b5f8115159050919050565b61082881610814565b82525050565b5f60a0820190506108415f83018861071d565b818103602083015261085381876107dc565b9050818103604083015261086781866107dc565b9050610876606083018561081f565b610883608083018461071d565b9695505050505050565b7f4e487b71000000000000000000000000000000000000000000000000000000005f52601160045260245ffd5b5f6108c482610714565b91507fffffffffffffffffffffffffffffffffffffffffffffffffffffffffffffffff82036108f6576108f561088d565b5b600182019050919050565b7f4e487b71000000000000000000000000000000000000000000000000000000005f52602260045260245ffd5b5f600282049050600182168061094557607f821691505b60208210810361095857610957610901565b5b50919050565b5f819050815f5260205f209050919050565b5f6020601f8301049050919050565b5f82821b905092915050565b5f600883026109ba7fffffffffffffffffffffffffffffffffffffffffffffffffffffffffffffffff8261097f565b6109c4868361097f565b95508019841693508086168417925050509392505050565b5f819050919050565b5f6109ff6109fa6109f584610714565b6109dc565b610714565b9050919050565b5f819050919050565b610a18836109e5565b610a2c610a2482610a06565b84845461098b565b825550505050565b5f90565b610a40610a34565b610a4b818484610a0f565b505050565b5b81811015610a6e57610a635f82610a38565b600181019050610a51565b5050565b601f821115610ab357610a848161095e565b610a8d84610970565b81016020851015610a9c578190505b610ab0610aa885610970565b830182610a50565b50505b505050565b5f82821c905092915050565b5f610ad35f1984600802610ab8565b1980831691505092915050565b5f610aeb8383610ac4565b9150826002028217905092915050565b610b048261079a565b67ffffffffffffffff811115610b1d57610b1c61057a565b5b610b27825461092e565b610b32828285610a72565b5f60209050601f831160018114610b63575f8415610b51578287015190505b610b5b8582610ae0565b865550610bc2565b601f198416610b718661095e565b5f5b82811015610b9857848901518255600182019150602085019450602081019050610b73565b86831015610bb55784890151610bb1601f891682610ac4565b8355505b6001600288020188555050505b505050505050565b5f604082019050610bdd5f83018561071d565b610bea602083018461081f565b939250505056fea2646970667358221220b9de921932f9929023a7c696dfe00024288e7fe12c685f1e0f3cd79d81f5df8964736f6c63430008150033",
  "immutableReferences": {},
  "source": "// SPDX-License-Identifier: MIT\npragma solidity >=0.4.22 <0.9.0;\n\n// Definicin del contrato inteligente\ncontract TasksContract {\n    uint256 public tasksCounter; // Contador para asignar identificadores nicos a las tareas\n\n    // Estructura de datos para definir una tarea\n    struct Task {\n        uint256 id; // Identificador nico de la tarea\n        string title; // Ttulo de la tarea\n        string description; // Descripcin de la tarea\n        bool done; // Estado de finalizacin de la tarea\n        uint256 createdAt; // Marca de tiempo de creacin de la tarea\n    }\n\n    // Evento emitido cuando se crea una nueva tarea\n    event TaskCreated(\n        uint256 id,\n        string title,\n        string description,\n        bool done,\n        uint256 createdAt\n    );\n\n    // Evento emitido cuando se cambia el estado de finalizacin de una tarea\n    event TaskToggledDone(uint256 id, bool done);\n\n    // Mapeo que asigna identificadores a estructuras de tareas\n    mapping(uint256 => Task) public tasks;\n\n    // Constructor del contrato que establece el contador a 0 y crea una tarea inicial\n    constructor() {\n        tasksCounter = 0;\n        createTask(\"My First Task\", \"My First Description\");\n    }\n\n    // Funcin para crear una nueva tarea\n    function createTask(\n        string memory _title,\n        string memory _description\n    ) public {\n        tasksCounter++; // Incrementa el contador de tareas\n        tasks[tasksCounter] = Task(\n            tasksCounter,\n            _title,\n            _description,\n            false,\n            block.timestamp\n        );\n        // Emite el evento de creacin de tarea\n        emit TaskCreated(\n            tasksCounter,\n            _title,\n            _description,\n            false,\n            block.timestamp\n        );\n    }\n\n    // Funcin para cambiar el estado de finalizacin de una tarea\n    function toggleDone(uint256 _id) public {\n        Task memory _task = tasks[_id]; // Obtiene la tarea del mapeo\n        _task.done = !_task.done; // Cambia el estado de finalizacin\n        tasks[_id] = _task; // Actualiza la tarea en el mapeo\n        // Emite el evento de cambio de estado de finalizacin\n        emit TaskToggledDone(_id, _task.done);\n    }\n}\n",
  "sourcePath": "D:\\Projects\\web3\\DApp-ToDoList\\contracts\\TasksContract.sol",
  "compiler": {
    "name": "solc",
    "version": "0.8.21+commit.d9974bed.Emscripten.clang"
  },
  "schemaVersion": "3.4.16",
  "updatedAt": "2023-10-28T12:43:47.728Z",
  "devdoc": {
    "kind": "dev",
    "methods": {},
    "version": 1
  },
  "userdoc": {
    "kind": "user",
    "methods": {},
    "version": 1
  }
}